:100000000C945E000C9486000C9486000C94860080
:100010000C9486000C9486000C9486000C94860048
:100020000C9486000C9486000C9474050C94340493
:100030000C9486000C9454050C9486000C94860055
:100040000C94EA030C9486000C9486000C948600B1
:100050000C9486000C9486000C9486000C94860008
:100060000C9486000C9486000000000024002700F9
:100070002A0000000000250028002B0004040404CE
:100080000404040402020202020203030303030342
:10009000010204081020408001020408102001021F
:1000A00004081020000000080002010000030407FB
:1000B000000000000000000054096E0911241FBE5A
:1000C000CFEFD8E0DEBFCDBF11E0A0E0B1E0E8E1C6
:1000D000F6E102C005900D92AE31B107D9F722E0EA
:1000E000AEE1B1E001C01D92A335B207E1F710E027
:1000F000CDE5D0E004C02197FE010E94D409CC35A3
:10010000D107C9F70E94EA050C94FF0A0C9400007D
:100110004F925F926F927F928F929F92AF92BF9217
:10012000FF9220913B0230913C028217930708F026
:1001300043C02B0166247724852E962EA72EBB2440
:10014000B82DA42F20914102F42C222391F0E22F0C
:10015000F0E0E49DD001E59DB00DF49DB00D1124BB
:10016000FB2E289D40011124B92D249F90011124BC
:10017000A32FE09147022091420230914302509117
:100180004402E51323C0FC01EE0FFF1F8E0F9F1FDB
:10019000820F931FE0914402E80FF92FF11DF082C6
:1001A000E0914502E80FF92FF11DB083209146023E
:1001B000820F911DFC01A083FF90BF90AF909F9094
:1001C0008F907F906F905F904F900895880F991F48
:1001D000880F991F820F931FE80FF92FF11D1082CE
:1001E000D9CF90E0FC01EC55FF4F2491FC01E05782
:1001F000FF4F3491FC01E458FF4FE491EE23B9F036
:10020000222339F02330F1F098F4213009F1223023
:1002100019F1F0E0EE0FFF1FEE58FF4FA591B491DA
:100220008FB7F894EC9130953E233C938FBF08959F
:100230002730A9F02830C9F0243059F78091800088
:100240008F7D03C0809180008F7780938000E1CF05
:1002500084B58F7784BDDDCF84B58F7DFBCF809152
:10026000B0008F778093B000D4CF8091B0008F7DA5
:10027000F9CFCF93DF9390E0FC01E057FF4F24913B
:1002800084589F4FFC0184918823D1F090E0880F1F
:10029000991FFC01E859FF4FA591B491FC01EE585C
:1002A000FF4FC591D49161110EC09FB7F8948C9106
:1002B000E22FE0958E238C932881E223E8839FBF71
:1002C000DF91CF9108958FB7F894EC91E22BEC93E6
:1002D0008FBFF6CF3FB7F8948091350290913602E8
:1002E000A0913702B091380226B5A89B05C02F3FD8
:1002F00019F00196A11DB11D3FBFBA2FA92F982F4C
:100300008827BC01CD01620F711D811D911D42E046
:10031000660F771F881F991F4A95D1F708950F938D
:100320001F93CF93DF93CDB7DEB729970FB6F8941D
:10033000DEBF0FBECDBF8091420290914302892B58
:1003400009F47CC00E946A010091480210914902A0
:1003500020914A0230914B02601771078207930780
:1003600040F4609348027093490280934A0290934C
:100370004B02009148021091490220914A023091AB
:100380004B02601B710B820B930B6C327140810529
:100390009105C0F2F89480913D0290913E029A83BB
:1003A0008983E0914202F0914302DF01119680813E
:1003B000898790913902E0914C02F0914D02809131
:1003C0004E02992309F445C09081982B988790811B
:1003D000809589238F838F818C8388E08B835885D8
:1003E0006F8149853B812C8189819A81508347FDAA
:1003F000252F3A952083262F39F0441F00C0000096
:100400006083000000C0F2CF38E04D9160830000AF
:10041000019761F7F0934D02E0934C0249873B83CB
:100420002C839A83898378940E946A01609348029E
:100430007093490280934A0290934B0229960FB61B
:10044000F894DEBF0FBECDBFDF91CF911F910F910A
:1004500008959081982B98879081809589238F8328
:100460008F818E8388E08D8358856F8149853D819A
:100470002E8189819A81508347FD252F00C000C0BD
:10048000208300C000C000C000C000C06083000026
:10049000262F3A9541F0441F000000C000C000C064
:1004A00000C000C0E8CF38E04D9100C0608300C0BC
:1004B000019709F7F0934D02E0934C0249873D8381
:1004C0002E83AFCF40E050E0BA0181E090E00E947F
:1004D00088000C948F01862728E030E0AC01417041
:1004E000552796958795452B21F041E0842740EAD2
:1004F00094272150310991F708950F931F938FB7D7
:10050000F89440913102509132026091330270911F
:1005100034028FBF0091200110912101209122010E
:100520003091230181E0041715072607370708F0EB
:1005300080E01F910F9108958FB7F8944091310298
:100540005091320260913302709134028FBFE0917A
:100550002F0288EE93E0E89F9001E99F300D11246F
:10056000C901330FAA0BBB0B840F951FA61FB71F22
:100570008093200190932101A0932201B093230145
:10058000089590E0FC01EE0FFF1FE80FF91FEA5FEE
:10059000FE4F80819181A281AC016A2F70E081E0E1
:1005A00090E00E9488000C948F014F925F926F92AE
:1005B0007F928F929F92AF92BF92CF92DF92EF92F3
:1005C000FF92CF93DF93D82F80913B0290913C0212
:1005D000029708F467C060914702709144028091CD
:1005E00042029091430280904102262F30E0E09138
:1005F0004502F0E04091460250E0671364C0039664
:10060000280F391FD9016C91E80FF91FF080840F72
:10061000951FFC01C0818820B1F1912CB12CA12C37
:1006200070E0762F6627072E000C880B990BA5012A
:1006300094010E94B2093901552444246F2D70E0C1
:10064000762F6627072E000C880B990BA5019401C5
:100650000E94B209CC24D22EE32EF42EC428D52831
:10066000E628F7286C2F70E0762F6627072E000CFF
:10067000880B990BA50194010E94B209C22AD32AC2
:10068000E42AF52A0AC0CF2CD12CF12CE12CFE2C27
:10069000ED2CDC2CCC24E62ACC2ACD28CE28CF2861
:1006A00009F07AC08D2FDF91CF91FF90EF90DF900E
:1006B000CF90BF90AF909F908F907F906F905F9002
:1006C0004F900C94C1020496280F391FD9016C91E8
:1006D000DC01A70FB11DEC90E80FF91FC081840F5A
:1006E000951FFC01F080882009F448C0912CB12CA2
:1006F000A12C70E0762F6627072E000C880B990B33
:10070000A50194010E94B209722E66245524442446
:100710006E2D70E0762F6627072E000C880B990B44
:10072000A50194010E94B209A90133272227422A78
:10073000532A642A752A6F2D70E0762F6627072EBC
:10074000000C880B990BA50194010E94B20973015A
:100750006201C22AD32AE42AF52A6C2F70E0762F90
:100760006627072E000C880B990BA50194010E94A7
:10077000B209542F432F322F222780CF2E2D30E065
:1007800050E040E0A90133272227562BC9018F29C9
:100790006C017A01DC2A81CFDF91CF91FF90EF903D
:1007A000DF90CF90BF90AF909F908F907F906F9091
:1007B0005F904F900C9462029091C00095FFFCCF27
:1007C0008093C60008958091C00087FFFCCF809180
:1007D000C60008951F920F920FB60F9211242F9307
:1007E0003F938F939F93AF93BF93809131029091EA
:1007F0003202A0913302B09134023091300223E0F2
:10080000230F2D3758F50196A11DB11D20933002FD
:100810008093310290933202A0933302B09334025A
:100820008091350290913602A0913702B091380242
:100830000196A11DB11D8093350290933602A093BD
:100840003702B0933802BF91AF919F918F913F9142
:100850002F910F900FBE0F901F90189526E8230F31
:100860000296A11DB11DD2CF1F920F920FB60F920B
:1008700011242F933F934F935F936F937F938F93A5
:100880009F93AF93BF93EF93FF93809127018823AA
:10089000B9F15F9A8091280290912902892B09F081
:1008A00049C080912A0290912B02892B09F042C005
:1008B0008091250190912601892B21F580911E01BF
:1008C00090911F01892BF1F490912D0280912C02BF
:1008D000981355C081E08093240110928100FF910C
:1008E000EF91BF91AF919F918F917F916F915F91A8
:1008F0004F913F912F910F900FBE0F901F90189521
:100900005F98C8CF8091250190912601909329028C
:100910008093280280911E0190911F0190932B02D9
:1009200080932A02109226011092250110921F0135
:1009300010921E0180912A0290912B02892B09F4BA
:10094000A0C080912A0290912B02019741F48091DE
:10095000280290912902883E934008F486C08FEFC8
:100960009FEF909389008093880080912A02909154
:100970002B02019790932B0280932A02B0CFE09133
:100980002C0281E08E0F80932C02F0E0E85DFE4F98
:100990009081E0912C0281E08E0F80932C02F0E098
:1009A000E85DFE4F2081E0912C0281E08E0F809364
:1009B0002C02F0E0E85DFE4F8081322F292F30932A
:1009C00029022093280290E090932B0280932A0220
:1009D00080912A0290912B02409128025091290285
:1009E000B0E0A0E0DC019927882770E060E0842B6C
:1009F000952BA62BB72B0097A105B10509F46DCF58
:100A0000893E23E09207A105B10514F1880F991FD3
:100A1000AA1FBB1F22E330E0309329022093280253
:100A200010922B0210922A02209128023091290262
:100A3000821B930BA109B109909326018093250194
:100A4000CD01AA27BB2790931F0180931E0172CF6F
:100A5000809128029091290290932601809325018C
:100A600080912A0290912B02EECF809128029091E2
:100A70002902969587959068909329028093280281
:100A800070CF8091280290912902909389008093E1
:100A9000880010922902109228028091270191E08B
:100AA0008927809327011BCF1F920F920FB60F92B9
:100AB00011242F938F939F9380912A0290912B0260
:100AC0008F3F914048F480912A0290912B02019629
:100AD00090932B0280932A029F918F912F910F90D8
:100AE0000FBE0F901F9018951F920F920FB60F9286
:100AF00011248F939F93EF93FF9310928500109290
:100B000084008091860090918700909329028093C1
:100B100028028091280290912902419738F480910F
:100B20002A0290912B02892B09F44BC08091280254
:100B30009091290296958795909329028093280297
:100B400080912A0290912B029695879590932B0283
:100B500080932A028091280290912902E0912D022F
:100B600091E09E0F90932D02F0E0E85DFE4F8083B0
:100B70008091280290912902E0912D0281E08E0F50
:100B800080932D02F0E0E85DFE4F908380912A0271
:100B900090912B02E0912D0291E09E0F90932D02F7
:100BA000F0E0E85DFE4F808390912D0280912C0251
:100BB000981303C081E080932E0210922B021092B2
:100BC0002A02FF91EF919F918F910F900FBE0F908E
:100BD0001F901895CF93DF9300D000D0CDB7DEB72C
:100BE000789484B5826084BD84B5816084BD85B508
:100BF000826085BD85B5816085BD80916E00816014
:100C000080936E00109281008091810082608093B9
:100C100081008091810081608093810080918000BB
:100C20008160809380008091B10084608093B100E6
:100C30008091B00081608093B00080917A008460E0
:100C400080937A0080917A00826080937A0080910C
:100C50007A00816080937A0080917A008068809326
:100C60007A001092C1001092C50087E08093C40002
:100C700082E08093C00086E08093C20088E1809388
:100C8000C10010922F028FEF9FEFDC0180932001B3
:100C900090932101A0932201B093230180EA8AB9A5
:100CA00081E085B988E08BB989E090E00E94DA099B
:100CB00029E030E043E050E0009721F430E020E00C
:100CC00050E040E0EEE7F0E0E491F0E0EE0FFF1FCF
:100CD000EE58FF4F65917491E2E9F0E0E491F1E0A4
:100CE000F093390210923A0250933C0240933B0237
:100CF00030933E0220933D0222E030E030934002E8
:100D000020933F021092410290934302809342024B
:100D1000F09344021092450220934602F09347025A
:100D2000109248021092490210924A0210924B020D
:100D300070934D0260934C02E0934E020E94760A3B
:100D400060E082E00E94390180913F029091400270
:100D500097FD4EC061E00E94390180913F020E94E0
:100D6000F10021E020933A021B821A8240E050E019
:100D7000BA018A819B810E94880040E050E0BA015C
:100D80008A819B810E94880040E050E0BA018A81FC
:100D90009B810E9488008A819B8101969B838A8324
:100DA000039721F782E00E94C10260914102613401
:100DB00041F120914202309143026150E1F070E034
:100DC0008FEF90E40E948A09F90140913D02509111
:100DD0003E02CF01821B930B8417950778F4408164
:100DE000469FC001479F900D112490833196EDCF0F
:100DF00010923A02B9CF70E060E0E6CF81E48093D0
:100E000041020E948F0178940FEF1FEFE12CFF2425
:100E1000F3949DEFC92ED12C23E0A22EB12C30E00B
:100E2000832E30E0932E77247A944B9B14C05D98E8
:100E30008091C00087FF09C00E94E303823709F454
:100E400055C058F4893609F43FC08114910469F300
:100E50000E940000E8CF5D9AEBCF863739F18737E3
:100E6000A1F781E0809327011092290210922802B5
:100E700010922601109225010E9462025D98EAE01C
:100E8000E0932F020E949C024B9B00C10E947D02B6
:100E90008111FCC00E94D502FFEF21EE34E0F15039
:100EA00020403040E1F700C00000EECFEFE0F1E07D
:100EB000FB83EA83EA81FB818191FB83EA838823B8
:100EC00089F00E94DC03F6CF23E131E03B832A83E3
:100ED000EA81FB818191FB83EA83882319F00E94D8
:100EE000DC03F6CF8AE00E94DC03AFCF5D980E945E
:100EF0006202FAE0F0932F020E949C024B9B11C009
:100F00000E947D0281110DC081E00E94D5022FEF69
:100F100031EE84E0215030408040E1F700C0000015
:100F2000EDCF0E947D02882339F00E94620282E0A8
:100F30000E94C10281E0D7CF10922E0210922D02A2
:100F400010922C0210922B0210922A021092290267
:100F50001092280280E00E94DC0381E00E94C1021E
:100F60005D9A9FEFE1EEF4E09150E040F040E1F750
:100F700000C000002FE020932F020E949C021092DC
:100F800080001092810076BA109285001092840041
:100F900081E280936F0082E8809381001A82662448
:100FA0006A943FEF3C834B9935C00E947D028111CA
:100FB00031C0F89490912E0278949091C00095FFE2
:100FC000F2CFF89420912D0290912C02291761F014
:100FD000E0912C0281E08E0F80932C02F0E0E85D1E
:100FE000FE4F8081898381E078948823E1F29981A2
:100FF0009093C6006981862D9C810E946B02682EA9
:101000009C83EA81EF5FEA83E33009F41A820E944D
:101010009C02C9CF10928100FA81FF23A1F08F2F8B
:1010200063E00E947E09992371F081E00E94DC0355
:1010300061E0862D9C810E946B02682E9C832A8130
:101040002F5F2A83E9CF80E00E94DC0380E00E94CA
:10105000DC0380E00E94DC03862D0E94DC038C818F
:101060000E94DC0380912E020E94DC035D984B9964
:1010700014C081E00E94D5023FEF81EE94E0315030
:1010800080409040E1F700C00000F1CF0E947D0257
:10109000882349F081E00E94DC030E94620282E022
:1010A0000E94C102D2CE80E00E94DC0384E50E944F
:1010B000DC031B821A8255245A9466246A940E9487
:1010C000E303EA81FB81E85DFE4F8083682F852D75
:1010D000962D0E946B02582E692E8A819B81019663
:1010E0009B838A838C3F910551F78CEF80932D026F
:1010F00010922C021092240180E00E94C1025F9A9B
:101100005D9A9FEFE1EEF4E09150E040F040E1F7AE
:1011100000C00000109280001092810010928500A3
:1011200010928400109389000093880076BA82E0C0
:1011300080936F002AE0209381001C821A824B99D1
:1011400072C0F89480912401789480918100882362
:1011500009F469C08091C00087FF3FC00E94E3038B
:10116000282E0E94E303382E0E94E303482EF894B1
:10117000E0912D0281E08E0F80932D02F0E0E85D7A
:10118000FE4F2082E0912D0281E08E0F80932D0290
:10119000F0E0E85DFE4F3082E0912D0281E08E0F9D
:1011A00080932D02F0E0E85DFE4F408278949A81B2
:1011B000992311F091509A83822D8329842969F112
:1011C000622D852D962D0E946B02632D0E946B026D
:1011D000642D0E946B02582E692EEA81E111AFCF77
:1011E000FC81F111ACCFF89480912D0290912C02EA
:1011F0007894891B90E09701281B390B2134310525
:101200007CF09601281B390BC901B5010E949E098B
:10121000862F6A830E94DC0392CF31E03C838FCF1C
:101220008C818A838CCF1092810010926F0076BAE5
:1012300080E00E94DC03852D0E94DC03862D0E9445
:10124000DC03809124010E94DC0389B188700E9434
:10125000DC033FEF89E698E1315080409040E1F7B0
:1012600000C000005D984B990DC080E00E94D5023F
:10127000EFEFF1EE24E0E150F0402040E1F700C054
:101280000000F1CF0E94620282E00E94C1028091C0
:10129000C6008FE99FE00197F1F700C00000809140
:1012A000C00087FDF4CFD1CDE9E3F2E081E0808397
:1012B000118213821282158214822FEF3FEF37833F
:1012C00026831086128611868387148692E095877E
:1012D00086871786108A118A128A089580914202A1
:1012E000909143020E94760A80913F0290914002C1
:1012F00097FD03C060E00C9439010895991B79E0D3
:1013000004C0991F961708F0961B881F7A95C9F795
:1013100080950895AA1BBB1B51E107C0AA1FBB1FE4
:10132000A617B70710F0A61BB70B881F991F5A9571
:10133000A9F780959095BC01CD01089597FB072EE4
:1013400016F4009407D077FD09D00E948A0907FCA3
:1013500005D03EF4909581959F4F089570956195C5
:101360007F4F0895A1E21A2EAA1BBB1BFD010DC0E1
:10137000AA1FBB1FEE1FFF1FA217B307E407F50745
:1013800020F0A21BB30BE40BF50B661F771F881F21
:10139000991F1A9469F760957095809590959B01B7
:1013A000AC01BD01CF010895EE0FFF1F0590F49130
:1013B000E02D09940F931F93CF93DF938230910513
:1013C00010F482E090E0E0915102F091520230E09E
:1013D00020E0B0E0A0E0309799F42115310509F440
:1013E0004AC0281B390B24303105D8F58A819B81EE
:1013F0006115710589F1FB0193838283FE0111C0A0
:10140000408151810281138148175907E0F0481744
:10141000590799F4109761F012960C93129713964E
:101420001C933296CF01DF91CF911F910F910895B8
:101430000093510210935202F4CF2115310551F05F
:101440004217530738F0A901DB019A01BD01DF0102
:10145000F801C1CFEF01F9CF90935202809351026E
:10146000CDCFFE01E20FF31F8193919322503109FA
:1014700039832883D7CF20914F0230915002232BFC
:1014800041F42091020130910301309350022093E6
:101490004F0220910001309101012115310541F4E5
:1014A0002DB73EB74091040150910501241B350B27
:1014B000E0914F02F0915002E217F307A0F42E1BC7
:1014C0003F0B2817390778F0AC014E5F5F4F2417A8
:1014D000350748F04E0F5F1F5093500240934F0264
:1014E000819391939FCFF0E0E0E09CCFCF93DF9387
:1014F0000097E9F0FC01329713821282A091510209
:10150000B0915202ED0130E020E01097A1F420816B
:101510003181820F931F20914F0230915002281782
:10152000390709F061C0F0935002E0934F02DF9158
:10153000CF910895EA01CE17DF07E8F54A815B8174
:101540009E0141155105B1F7E901FB83EA834991F9
:101550005991C40FD51FEC17FD0761F4808191816B
:101560000296840F951FE901998388838281938174
:101570009B838A83F0E0E0E012968D919C91139713
:101580000097B9F52D913C911197CD010296820FEC
:10159000931F20914F02309150022817390739F6D6
:1015A000309751F51092520210925102B0935002AE
:1015B000A0934F02BCCFD383C28340815181840F5B
:1015C000951FC817D90761F44E5F5F4F88819981D5
:1015D000480F591F518340838A819B819383828363
:1015E0002115310509F0B0CFF0935202E09351027A
:1015F0009ECFFD01DC01C0CF13821282D7CF10E055
:10160000CDE5D0E004C0FE010E94D4092196CE357C
:08161000D107C9F7F894FFCFE0
:101618000000530280000000FF00FF00FF000031BF
:0E1628002E3000546170654D617465363400DB
:00000001FF
