:100000000C945E000C9486000C9486000C94860080
:100010000C9486000C9486000C9486000C94860048
:100020000C9486000C9486000C9474050C94340493
:100030000C9486000C9454050C9486000C94860055
:100040000C94EA030C9486000C9486000C948600B1
:100050000C9486000C9486000C9486000C94860008
:100060000C9486000C9486000000000024002700F9
:100070002A0000000000250028002B0004040404CE
:100080000404040402020202020203030303030342
:10009000010204081020408001020408102001021F
:1000A00004081020000000080002010000030407FB
:1000B00000000000000000005B09750911241FBE4C
:1000C000CFEFD8E0DEBFCDBF11E0A0E0B1E0EEEFB2
:1000D000F5E102C005900D92A032B107D9F722E0F8
:1000E000A0E2B1E001C01D92A535B207E1F710E032
:1000F000CDE5D0E004C02197FE010E94C709CC35B0
:10010000D107C9F70E94EA050C94F20A0C9400008A
:100110004F925F926F927F928F929F92AF92BF9217
:10012000FF9220913D0230913E028217930708F022
:1001300043C02B0166247724852E962EA72EBB2440
:10014000B82DA42F20914302F42C222391F0E22F0A
:10015000F0E0E49DD001E59DB00DF49DB00D1124BB
:10016000FB2E289D40011124B92D249F90011124BC
:10017000A32FE09149022091440230914502509111
:100180004602E51323C0FC01EE0FFF1F8E0F9F1FD9
:10019000820F931FE0914602E80FF92FF11DF082C4
:1001A000E0914702E80FF92FF11DB083209148023A
:1001B000820F911DFC01A083FF90BF90AF909F9094
:1001C0008F907F906F905F904F900895880F991F48
:1001D000880F991F820F931FE80FF92FF11D1082CE
:1001E000D9CF90E0FC01EC55FF4F2491FC01E05782
:1001F000FF4F3491FC01E458FF4FE491EE23B9F036
:10020000222339F02330F1F098F4213009F1223023
:1002100019F1F0E0EE0FFF1FEE58FF4FA591B491DA
:100220008FB7F894EC9130953E233C938FBF08959F
:100230002730A9F02830C9F0243059F78091800088
:100240008F7D03C0809180008F7780938000E1CF05
:1002500084B58F7784BDDDCF84B58F7DFBCF809152
:10026000B0008F778093B000D4CF8091B0008F7DA5
:10027000F9CFCF93DF9390E0FC01E057FF4F24913B
:1002800084589F4FFC0184918823D1F090E0880F1F
:10029000991FFC01E859FF4FA591B491FC01EE585C
:1002A000FF4FC591D49161110EC09FB7F8948C9106
:1002B000E22FE0958E238C932881E223E8839FBF71
:1002C000DF91CF9108958FB7F894EC91E22BEC93E6
:1002D0008FBFF6CF3FB7F8948091370290913802E4
:1002E000A0913902B0913A0226B5A89B05C02F3FD4
:1002F00019F00196A11DB11D3FBFBA2FA92F982F4C
:100300008827BC01CD01620F711D811D911D42E046
:10031000660F771F881F991F4A95D1F708950F938D
:100320001F93CF93DF93CDB7DEB729970FB6F8941D
:10033000DEBF0FBECDBF8091440290914502892B54
:1003400009F47CC00E946A0100914A0210914B029C
:1003500020914C0230914D0260177107820793077C
:1003600040F460934A0270934B0280934C02909346
:100370004D0200914A0210914B0220914C023091A3
:100380004D02601B710B820B930B6C327140810527
:100390009105C0F2F89480913F02909140029A83B7
:1003A0008983E0914402F0914502DF01119680813A
:1003B000898790913B02E0914E02F0914F0280912B
:1003C0005002992309F445C09081982B9887908119
:1003D000809589238F838F818C8388E08B835885D8
:1003E0006F8149853B812C8189819A81508347FDAA
:1003F000252F3A952083262F39F0441F00C0000096
:100400006083000000C0F2CF38E04D9160830000AF
:10041000019761F7F0934F02E0934E0249873B83C7
:100420002C839A83898378940E946A0160934A029C
:1004300070934B0280934C0290934D0229960FB615
:10044000F894DEBF0FBECDBFDF91CF911F910F910A
:1004500008959081982B98879081809589238F8328
:100460008F818E8388E08D8358856F8149853D819A
:100470002E8189819A81508347FD252F00C000C0BD
:10048000208300C000C000C000C000C06083000026
:10049000262F3A9541F0441F000000C000C000C064
:1004A00000C000C0E8CF38E04D9100C0608300C0BC
:1004B000019709F7F0934F02E0934E0249873D837D
:1004C0002E83AFCF40E050E0BA0181E090E00E947F
:1004D00088000C948F01862728E030E0AC01417041
:1004E000552796958795452B21F041E0842740EAD2
:1004F00094272150310991F708950F931F938FB7D7
:10050000F894409133025091340260913502709119
:1005100036028FBF00912201109123012091240106
:100520003091250181E0041715072607370708F0E9
:1005300080E01F910F9108958FB7F8944091330296
:100540005091340260913502709136028FBFE09174
:10055000310288EE93E0E89F9001E99F300D11246D
:10056000C901330FAA0BBB0B840F951FA61FB71F22
:100570008093220190932301A0932401B09325013D
:10058000089590E0FC01EE0FFF1FE80FF91FEA5FEE
:10059000FE4F80819181A281AC016A2F70E081E0E1
:1005A00090E00E9488000C948F014F925F926F92AE
:1005B0007F928F929F92AF92BF92CF92DF92EF92F3
:1005C000FF92CF93DF93D82F80913D0290913E020E
:1005D000029708F467C060914902709146028091C9
:1005E00044029091450280904302262F30E0E09132
:1005F0004702F0E04091480250E0671364C0039660
:10060000280F391FD9016C91E80FF91FF080840F72
:10061000951FFC01C0818820B1F1912CB12CA12C37
:1006200070E0762F6627072E000C880B990BA5012A
:1006300094010E94A5093901552444246F2D70E0CE
:10064000762F6627072E000C880B990BA5019401C5
:100650000E94A509CC24D22EE32EF42EC428D5283E
:10066000E628F7286C2F70E0762F6627072E000CFF
:10067000880B990BA50194010E94A509C22AD32ACF
:10068000E42AF52A0AC0CF2CD12CF12CE12CFE2C27
:10069000ED2CDC2CCC24E62ACC2ACD28CE28CF2861
:1006A00009F07AC08D2FDF91CF91FF90EF90DF900E
:1006B000CF90BF90AF909F908F907F906F905F9002
:1006C0004F900C94C1020496280F391FD9016C91E8
:1006D000DC01A70FB11DEC90E80FF91FC081840F5A
:1006E000951FFC01F080882009F448C0912CB12CA2
:1006F000A12C70E0762F6627072E000C880B990B33
:10070000A50194010E94A509722E66245524442453
:100710006E2D70E0762F6627072E000C880B990B44
:10072000A50194010E94A509A90133272227422A85
:10073000532A642A752A6F2D70E0762F6627072EBC
:10074000000C880B990BA50194010E94A509730167
:100750006201C22AD32AE42AF52A6C2F70E0762F90
:100760006627072E000C880B990BA50194010E94A7
:10077000A509542F432F322F222780CF2E2D30E072
:1007800050E040E0A90133272227562BC9018F29C9
:100790006C017A01DC2A81CFDF91CF91FF90EF903D
:1007A000DF90CF90BF90AF909F908F907F906F9091
:1007B0005F904F900C9462029091C00095FFFCCF27
:1007C0008093C60008958091C00087FFFCCF809180
:1007D000C60008951F920F920FB60F9211242F9307
:1007E0003F938F939F93AF93BF93809133029091E8
:1007F0003402A0913502B09136023091320223E0EA
:10080000230F2D3758F50196A11DB11D20933202FB
:100810008093330290933402A0933502B093360252
:100820008091370290913802A0913902B0913A023A
:100830000196A11DB11D8093370290933802A093B9
:100840003902B0933A02BF91AF919F918F913F913E
:100850002F910F900FBE0F901F90189526E8230F31
:100860000296A11DB11DD2CF1F920F920FB60F920B
:1008700011242F933F934F935F936F937F938F93A5
:100880009F93AF93BF93EF93FF93809129018823A8
:10089000B9F15F9A80912A0290912B02892B09F07D
:1008A00049C080912C0290912D02892B09F042C001
:1008B0008091270190912801892B21F580912001B9
:1008C00090912101892BF1F490912F0280912E02B9
:1008D000981355C081E08093260110928100FF910A
:1008E000EF91BF91AF919F918F917F916F915F91A8
:1008F0004F913F912F910F900FBE0F901F90189521
:100900005F98C8CF809127019091280190932B0286
:1009100080932A02809120019091210190932D02D1
:1009200080932C021092280110922701109221012D
:100930001092200180912C0290912D02892B09F4B4
:10094000A0C080912C0290912D02019741F48091DA
:100950002A0290912B02883E934008F486C08FEFC4
:100960009FEF909389008093880080912C02909152
:100970002D02019790932D0280932C02B0CFE0912D
:100980002E0281E08E0F80932E02F0E0E65DFE4F96
:100990009081E0912E0281E08E0F80932E02F0E094
:1009A000E65DFE4F2081E0912E0281E08E0F809364
:1009B0002E02F0E0E65DFE4F8081322F292F30932A
:1009C0002B0220932A0290E090932D0280932C0218
:1009D00080912C0290912D0240912A0250912B027D
:1009E000B0E0A0E0DC019927882770E060E0842B6C
:1009F000952BA62BB72B0097A105B10509F46DCF58
:100A0000893E23E09207A105B10510F1880F991FD7
:100A1000AA1FBB1F24E630E030932B0220932A024A
:100A200010922D0210922C0220912A0230912B025A
:100A3000821B930BA109B109909328018093270190
:100A4000CD01AA27BB27909321018093200172CF6B
:100A500080912A0290912B02909328018093270184
:100A600080912C0290912D02EECF80912A029091DC
:100A70002B0296958795906890932B0280932A027B
:100A800070CF80912A0290912B02909389008093DD
:100A9000880010922B0210922A028091290191E085
:100AA0008927809329011BCF1F920F920FB60F92B7
:100AB00011242F938F939F9380912C0290912D025C
:100AC0008F3F914048F480912C0290912D02019625
:100AD00090932D0280932C029F918F912F910F90D4
:100AE0000FBE0F901F9018951F920F920FB60F9286
:100AF00011248F939F93EF93FF9310928500109290
:100B00008400809186009091870090932B028093BF
:100B10002A0280912A0290912B02419738F4809109
:100B20002C0290912D02892B09F44BC080912A024E
:100B300090912B029695879590932B0280932A0291
:100B400080912C0290912D029695879590932D027D
:100B500080932C0280912A0290912B02E0912F0227
:100B600091E09E0F90932F02F0E0E65DFE4F8083B0
:100B700080912A0290912B02E0912F0281E08E0F4A
:100B800080932F02F0E0E65DFE4F908380912C026F
:100B900090912D02E0912F0291E09E0F90932F02F1
:100BA000F0E0E65DFE4F808390912F0280912E024F
:100BB000981303C081E08093300210922D021092AE
:100BC0002C02FF91EF919F918F910F900FBE0F908C
:100BD0001F901895CF93DF9300D000D0CDB7DEB72C
:100BE000789484B5826084BD84B5816084BD85B508
:100BF000826085BD85B5816085BD80916E00816014
:100C000080936E00109281008091810082608093B9
:100C100081008091810081608093810080918000BB
:100C20008160809380008091B10084608093B100E6
:100C30008091B00081608093B00080917A008460E0
:100C400080937A0080917A00826080937A0080910C
:100C50007A00816080937A0080917A008068809326
:100C60007A001092C1001092C50087E08093C40002
:100C700082E08093C00086E08093C20088E1809388
:100C8000C100109231028FEF9FEFDC0180932201AF
:100C900090932301A0932401B093250180EA8AB99F
:100CA00081E085B988E08BB989E090E00E94CD09A8
:100CB00029E030E043E050E0009721F430E020E00C
:100CC00050E040E0EEE7F0E0E491F0E0EE0FFF1FCF
:100CD000EE58FF4F65917491E2E9F0E0E491F1E0A4
:100CE000F0933B0210923C0250933E0240933D022F
:100CF0003093400220933F0222E030E030934202E2
:100D00002093410210924302909345028093440243
:100D1000F09346021092470220934802F093490252
:100D200010924A0210924B0210924C0210924D0205
:100D300070934F0260934E02E09350020E94690A42
:100D400060E082E00E94390180914102909142026C
:100D500097FD4EC061E00E943901809141020E94DE
:100D6000F10021E020933C021B821A8240E050E017
:100D7000BA018A819B810E94880040E050E0BA015C
:100D80008A819B810E94880040E050E0BA018A81FC
:100D90009B810E9488008A819B8101969B838A8324
:100DA000039721F782E00E94C102609143026134FF
:100DB00041F120914402309145026150E1F070E030
:100DC0008FEF90E40E949109F90140913F02509108
:100DD0004002CF01821B930B8417950778F4408162
:100DE000469FC001479F900D112490833196EDCF0F
:100DF00010923C02B9CF70E060E0E6CF81E48093CE
:100E000043020E948F0178940FEF1FEFE12CFF2423
:100E1000F3949DEFC92ED12C23E0A22EB12C30E00B
:100E2000832E30E0932E77247A944B9B14C05D98E8
:100E30008091C00087FF09C00E94E303823709F454
:100E400055C058F4893609F43FC08114910469F300
:100E50000E940000E8CF5D9AEBCF863739F18737E3
:100E6000A1F781E08093290110922B0210922A02AF
:100E700010922801109227010E9462025D988AE078
:100E8000809331020E949C024B9BFEC00E947D0217
:100E90008111FAC00E94D5029FEFE1EEF4E091507B
:100EA000E040F040E1F700C00000EECFEFE0F1E0FD
:100EB000FB83EA83EA81FB818191FB83EA838823B8
:100EC00089F00E94DC03F6CF25E131E03B832A83E1
:100ED000EA81FB818191FB83EA83882319F00E94D8
:100EE000DC03F6CF8AE00E94DC03AFCF5D980E945E
:100EF0006202FAE0F09331020E949C024B9B11C007
:100F00000E947D0281110DC081E00E94D5022FEF69
:100F100031EE84E0215030408040E1F700C0000015
:100F2000EDCF0E947D02882339F00E94620282E0A8
:100F30000E94C10281E0D7CF1092300210922F029E
:100F400010922E0210922D0210922C0210922B025F
:100F500010922A0280E00E94DC0381E00E94C1021C
:100F60005D9A9FEFE1EEF4E09150E040F040E1F750
:100F700000C000002FE0209331020E949C021092DA
:100F800080001092810076BA109285001092840041
:100F900081E280936F0082E8809381001982662449
:100FA0006A943FEF3A834B9933C00E947D028111CE
:100FB0002FC0F8949091300278949091C00095FFE2
:100FC000F2CFF89420912F0290912E02291759F018
:100FD000E0912E0281E08E0F80932E02F0E0E65D1C
:100FE000FE4F208081E078948823E9F22092C600A9
:100FF000622D862D9A810E946B02682E9A838981C8
:101000008F5F8983833009F419820E949C02CBCFC1
:101010001092810099819923A1F0892F63E00E94A9
:101020008509992371F081E00E94DC0361E0862D3F
:101030009A810E946B02682E9A83E981EF5FE983AF
:10104000E9CF80E00E94DC0380E00E94DC0380E0C6
:101050000E94DC03862D0E94DC038A810E94DC034F
:10106000809130020E94DC035D984B9914C081E0AE
:101070000E94D502FFEF21EE34E0F15020403040D5
:10108000E1F700C00000F1CF0E947D02882349F003
:1010900081E00E94DC030E94620282E00E94C102A1
:1010A000D4CE80E00E94DC0384E50E94DC031B8236
:1010B0001A8255245A9466246A940E94E303EA81B2
:1010C000FB81E65DFE4F8083682F852D962D0E9463
:1010D0006B02582E692E2A813B812F5F3F4F3B8345
:1010E0002A832C3F310549F78CEF80932F02109211
:1010F0002E021092260180E00E94C1025F9A5D9A42
:101100003FEF81EE94E0315080409040E1F700C025
:1011100000001092800010928100109285001092C1
:101120008400109389000093880076BA82E080934F
:101130006F00EAE0E093810019821A8202C0F1E0B8
:10114000F9834B9977C0F894809126017894809127
:101150008100882309F46EC08091C00087FF42C0DF
:101160000E94E303382E0E94E303482E0E94E3030B
:101170008C83F894E0912F0281E08E0F80932F02F0
:10118000F0E0E65DFE4F3082E0912F0281E08E0FAD
:1011900080932F02F0E0E65DFE4F4082E0912F0247
:1011A00081E08E0F80932F02F0E0E65DFE4F2C81F0
:1011B000208378943A81332311F031503A83832D80
:1011C00084299C81892B09F4BACF632D852D962D16
:1011D0000E946B02642D0E946B026C810E946B0264
:1011E000582E692EEA81E111ACCFF981F111A9CF16
:1011F000F89480912F0290E020912E0230E0281781
:101200003907B0F4821B930B78949701281B390B94
:101210002134310508F491CF9601281B390BC901FF
:10122000B5010E949109862F6A830E94DC0389CF51
:101230009395E8CF1092810010926F0076BA80E00B
:101240000E94DC03852D0E94DC03862D0E94DC03B6
:10125000809126010E94DC0389B188700E94DC0322
:101260003FEF89E698E1315080409040E1F700C0BF
:1012700000005D984B990DC080E00E94D502EFEF11
:10128000F1EE24E0E150F0402040E1F700C0000022
:10129000F1CF0E94620282E00E94C1028091C600EA
:1012A0008FE99FE00197F1F700C000008091C00036
:1012B00087FDF4CFCACDEBE3F2E081E080831182B9
:1012C00013821282158214822FEF3FEF3783268319
:1012D0001086128611868387148692E0958786870A
:1012E0001786108A118A128A08958091440290917B
:1012F00045020E94690A809141029091420297FD45
:1013000003C060E00C9439010895991B79E004C092
:10131000991F961708F0961B881F7A95C9F7809534
:101320000895AA1BBB1B51E107C0AA1FBB1FA6172C
:10133000B70710F0A61BB70B881F991F5A95A9F77E
:1013400080959095BC01CD010895A1E21A2EAA1BAB
:10135000BB1BFD010DC0AA1FBB1FEE1FFF1FA21765
:10136000B307E407F50720F0A21BB30BE40BF50B62
:10137000661F771F881F991F1A9469F760957095EB
:10138000809590959B01AC01BD01CF010895EE0FB2
:10139000FF1F0590F491E02D09940F931F93CF93B5
:1013A000DF938230910510F482E090E0E0915302E7
:1013B000F091540230E020E0B0E0A0E0309799F4E2
:1013C0002115310509F44AC0281B390B2430310599
:1013D000D8F58A819B816115710589F1FB019383A1
:1013E0008283FE0111C0408151810281138148171F
:1013F0005907E0F04817590799F4109761F01296D1
:101400000C93129713961C933296CF01DF91CF91D4
:101410001F910F9108950093530210935402F4CF3B
:101420002115310551F04217530738F0A901DB01AE
:101430009A01BD01DF01F801C1CFEF01F9CF90930F
:10144000540280935302CDCFFE01E20FF31F81932C
:1014500091932250310939832883D7CF20915102AB
:1014600030915202232B41F420910201309103016B
:1014700030935202209351022091000130910101DA
:101480002115310541F42DB73EB74091040150912B
:101490000501241B350BE0915102F0915202E21735
:1014A000F307A0F42E1B3F0B2817390778F0AC0187
:1014B0004E5F5F4F2417350748F04E0F5F1F509364
:1014C000520240935102819391939FCFF0E0E0E06C
:1014D0009CCFCF93DF930097E9F0FC013297138202
:1014E0001282A0915302B0915402ED0130E020E04D
:1014F0001097A1F420813181820F931F2091510216
:10150000309152022817390709F061C0F093520256
:10151000E0935102DF91CF910895EA01CE17DF07E2
:10152000E8F54A815B819E0141155105B1F7E9015A
:10153000FB83EA8349915991C40FD51FEC17FD072E
:1015400061F4808191810296840F951FE90199834E
:101550008883828193819B838A83F0E0E0E0129606
:101560008D919C9113970097B9F52D913C9111970E
:10157000CD010296820F931F2091510230915202A9
:101580002817390739F6309751F510925402109206
:101590005302B0935202A0935102BCCFD383C283B3
:1015A00040815181840F951FC817D90761F44E5FA0
:1015B0005F4F88819981480F591F518340838A81E9
:1015C0009B81938382832115310509F0B0CFF0937D
:1015D0005402E09353029ECFFD01DC01C0CF138281
:1015E0001282D7CF10E0CDE5D0E004C0FE010E940A
:0E15F000C7092196CE35D107C9F7F894FFCF71
:1015FE000000550280000000FF00FF00FF000031D8
:10160E002E302E3200546170654D61746536340093
:00000001FF
